:020000040800F2
:1000000068060020CD010008D5010008D7010008CE
:10001000D9010008DB010008DD0100080000000034
:10002000000000000000000000000000DF010008E8
:10003000E101000800000000E3010008E5010008FC
:10004000E7010008E7010008E7010008E7010008F0
:10005000E7010008E701000899040008E70100082B
:10006000D10400080D05000849050008190300081F
:1000700039030008590300087903000899030008B0
:10008000B9030008D9030008E7010008E7010008E8
:10009000E7010008E7010008E7010008E7010008A0
:1000A000E7010008E7010008E7010008E701000890
:1000B000E7010008E7010008E7010008E701000880
:1000C000E7010008E7010008E7010008E701000870
:1000D000E70100086D0D0008E7010008E7010008CE
:1000E000E7010008E7010008E7010008E701000850
:1000F000E7010008E7010008E7010008E701000840
:10010000E7010008E7010008E7010008E70100082F
:10011000E7010008E7010008E7010008E70100081F
:10012000F9030008190400083D0400085D040008F4
:1001300000F002F800F03AF80AA090E8000C8244BF
:100140008344AAF10107DA4501D100F02FF8AFF29C
:10015000090EBAE80F0013F0010F18BFFB1A43F0A5
:10016000010318474014000060140000103A24BF37
:1001700078C878C1FAD8520724BF30C830C144BF0C
:1001800004680C607047000000230024002500264E
:10019000103A28BF78C1FBD8520728BF30C148BFEA
:1001A0000B6070471FB51FBD10B510BD00F06EF895
:1001B0001146FFF7F7FF00F001FE00F0A0F803B4CE
:1001C000FFF7F2FF03BC00F0E7FD0000094880479D
:1001D00009480047FEE7FEE7FEE7FEE7FEE7FEE729
:1001E000FEE7FEE7FEE7FEE704480549054A064B41
:1001F000704700002D090008310100086800002048
:100200006806002068020020680200207047000095
:100210000FB4044910B503AA029800F009F810BC05
:100220005DF814FB0000002070477047704770476E
:10023000074B70B50D467B4400F011F80446284684
:1002400000F020F810B14FF0FF3070BD204670BDB7
:10025000670B000001694A1C02610878704700B50D
:100260008FB0CDE901310021059105497944CDE9EF
:1002700003101146684600F02EF80FB000BD0000D4
:10028000E5FFFFFF007B00F080007047754600F03F
:100290003DF8AE4605006946534620F00700854606
:1002A00018B020B5FFF7A0FFBDE820404FF00006D2
:1002B0004FF000074FF000084FF0000B21F007014E
:1002C000AC46ACE8C009ACE8C009ACE8C009ACE891
:1002D000C0098D4670472DE9F04106460024D6E955
:1002E0000170F5688046304603E04146B847641C1B
:1002F0003046A8470028F8D12046BDE8F0810446E2
:10030000AFF300802046FFF75AFF00000048704717
:10031000040000207047000010B50548006800F098
:100320000F04034844602046FFF7F4FF10BD0000AF
:10033000000002407047000010B505480068C0F397
:1003400003142001024948602046FFF7F3FF10BD67
:10035000000002407047000010B505480068C0F377
:1003600003242002024948602046FFF7F3FF10BD36
:10037000000002407047000010B505480068C0F357
:1003800003342003024948602046FFF7F3FF10BD05
:10039000000002407047000010B505480068C0F337
:1003A00003442004024948602046FFF7F3FF10BDD4
:1003B000000002407047000010B505480068C0F317
:1003C00003542005024948602046FFF7F3FF10BDA3
:1003D000000002407047000010B505480068C0F3F7
:1003E00003642006024948602046FFF7F3FF10BD72
:1003F000000002407047000010B50548006800F09A
:100400000F040348001D04602046FFF7F3FF10BDF2
:10041000000402407047000010B506480068C0F3B1
:10042000031420010349091D08602046FFF7F2FF6D
:1004300010BD0000000402407047000010B50648DF
:100440000068C0F3032420020349091D0860204608
:10045000FFF7F2FF10BD00000004024010B50C4889
:100460000068C0F3033434B120030949091D086052
:10047000204600F00FF806480068C0F3034434B18A
:1004800020040349091D0860204600F004F810BD4F
:10049000000402407047704710B50748006800F03C
:1004A000010010B105A0FFF7B3FE0348006840F05B
:1004B00001000149086010BD14040140204B45595A
:1004C0005F5550B7A2C9FAD6D0B6CFA3A10A000093
:1004D00010B50748006800F0040010B105A0FFF750
:1004E00097FE0348006840F004000149086010BD11
:1004F00014040140204B45595F4C454654B7A2C9EE
:10050000FAD6D0B6CFA3A10A0000000010B5074864
:10051000006800F0080010B105A0FFF779FE03485D
:10052000006840F008000149086010BD1404014053
:10053000204B45595F444F574EB7A2C9FAD6D0B6A3
:10054000CFA3A10A0000000010B50748006800F022
:10055000100010B105A0FFF75BFE0348006840F0F3
:1005600010000149086010BD14040140204B45599A
:100570005F5249474854B7A2C9FAD6D0B6CFA3A113
:100580000A0000002DE9F04704460D4616461F46B6
:10059000DDF82080B44201DCBD4201DDBDE8F0871A
:1005A0003B4632462946204600F0AFFB301B401C3C
:1005B00084B2781B401C85B20BE0A94602E040469D
:1005C00000F0CEFB5FEA0900A9F101011FFA81F9F1
:1005D000F5D12000A4F101018CB2EED100BFDDE71E
:1005E0002DE9F05F04460E46154698463AE0287815
:1005F000203800F0FF0A06F10F0083B2E01D82B23E
:100600003146204600F081FB00271FE0184800EB30
:100610000A1010F807B04FF0000912E00BF080004C
:10062000802803D1404600F09BFB02E00A9800F0CE
:1006300097FB4FF6FF7000EA4B0B09F1010000F049
:10064000FF09B9F1080FE9DB781CC7B2102FDDDB19
:100650006D1C04F1080084B2E92C03DD002406F1CE
:10066000100086B228780028C1D1BDE8F09F0000B4
:10067000A40F00080848806940F01000064988610E
:100680004FF03330054908600846C0684FF6FF71E7
:1006900008430249C8607047001002400010014042
:1006A000C1B2034A1161C1B2C94351617047000030
:1006B000001001400F48006840F001000D4908603B
:1006C000084640680C4908400A49486008460068E6
:1006D0000A490840074908600846006820F480205D
:1006E00008600846406820F4FE0048604FF41F0090
:1006F00088607047001002400000FFF0FFFFF6FE28
:100700002DE9F041054600270026382D15D006DCDE
:10071000202D09D0282D0AD0302D17D10AE0402DE8
:100720000ED0482D12D10EE04FF4002411E04FF40A
:1007300040240EE04FF480140BE04FF4A01408E0C6
:100740004FF4C01405E04FF4E01402E0FF20BDE8D0
:10075000F08100BFFFF7AEFF3848006820F480301A
:10076000364908600846006840F48030086000BFE1
:100770003248006800F40037761C6FF07040864203
:1007800001D2002FF4D02D48006800F4003000287A
:100790004DD02B48006840F01000294908600846F9
:1007A000006820F0030008600846006840F002007E
:1007B00008602248406843F6F07188431F4948604A
:1007C0000846406840F4806048600846406820F46D
:1007D000403048600846406840F480304860084631
:1007E000406820F470104860084640682043486024
:1007F0000846006840F08070086000BF0F4800683D
:1008000000F000700028F9D00C48406820F0030088
:100810000A4948600846406840F00200486000BF4E
:100820000648406800F00C000828F9D103E0FFF703
:1008300041FFFF208BE7002089E700000010024005
:100840000020024010B500F001F810BD0CB50020EA
:10085000019000903348006840F4803031490860CE
:1008600000BF3048006800F4003000900198401C40
:100870000190009818B90198B0F5A06FF1D12948FE
:10088000006800F4003010B10120009001E0002069
:1008900000900098012843D12348006840F01000E0
:1008A000214908600846006820F0030008600846F7
:1008B000006840F0020008601A4840681949486022
:1008C0000846406848600846406840F480604860D8
:1008D0000846406820F47C1048600846406840F4B0
:1008E000E81048600846006840F08070086000BF6B
:1008F0000C48006800F000700028F9D009484068F2
:1009000020F00300074948600846406840F00200B4
:10091000486000BF0348406800F00C000828F9D187
:100920000CBD0000001002400020024010B513482A
:10093000006840F00100114908600846406810490D
:1009400008400E494860084600680E4908400B49B7
:1009500008600846006820F4802008600846406867
:1009600020F4FE0048604FF41F008860FFF76AFF24
:100970004FF000600449086010BD00000010024004
:100980000000FFF8FFFFF6FE08ED00E070B5064638
:1009900040F2DF1340F23F120021084600F0B5F9A3
:1009A00000240BE0002504E0304600F0D9F9681C73
:1009B00085B2B5F5F07FF7DB601C84B2B4F5A07F9B
:1009C000F0DB70BD2048406940F480701E494861EA
:1009D00000204FF020418861C8611C4908604FF039
:1009E0002040806940F480504FF0204188610846E3
:1009F000806940F4804088610846806940F01000BA
:100A000088610846C069C8610846C06940F00100B5
:100A1000C8610846C06940F47060C8610B4800684E
:100A2000C1F81C0109480068C1F81C010846D0F84B
:100A30001C0140F44070C1F81C010846806940F078
:100A40000100886170470000001002401C0100A0F6
:100A50002248806940F4B0702049886120480068CD
:100A600020F00F001E4908600846006840F00B00A7
:100A700008600846406820F47020486008464068D6
:100A800040F4302048601748006800F0FF20154906
:100A900008600846006840F0BB100860081D006848
:100AA0000020091D08600846006840F0BB3008605F
:100AB0000D48006820F070400B4908600846006847
:100AC00040F030400860081D00680020091D0860E3
:100AD0000846006840F0BB300860704700100240D4
:100AE00000200140001401400018014000B5FFF74C
:100AF000AFFFFFF767FF4FF4FA7201E0501E82B2BA
:100B0000002AFBDC112000F025F94FF4FA7201E015
:100B1000501E82B2002AFBDCB92000F01BF9FF2036
:100B200000F01EF9832000F01BF9572000F018F99F
:100B30004FF4FA7201E0501E82B2002AFBDCB120B1
:100B400000F008F9002000F00BF9142000F008F97B
:100B50001C2000F005F91C2000F002F9C32000F071
:100B6000FFF8442000F0FCF8702000F0F9F84FF492
:100B7000FA7201E0501E82B2002AFBDCB42000F0C1
:100B8000E9F8222000F0ECF8402000F0E9F800201D
:100B900000F0E6F82A2000F0E3F82A2000F0E0F860
:100BA000202000F0DDF8912000F0DAF84FF4FA721E
:100BB00001E0501E82B2002AFBDC362000F0CAF8A9
:100BC0004C2000F0CDF8C02000F0C4F8502000F018
:100BD000C7F8502000F0C4F8012000F0C1F83C2014
:100BE00000F0BEF8C82000F0BBF8082000F0B8F80C
:100BF000002000F0B5F8082000F0B2F8042000F062
:100C0000AFF84FF4FA7201E0501E82B2002AFBDC0A
:100C10004FF4FA7201E0501E82B2002AFBDCE020A1
:100C200000F098F80B2000F09BF8112000F098F8E5
:100C30001E2000F095F8302000F092F83A2000F0E5
:100C40008FF8432000F08CF84E2000F089F85620F1
:100C500000F086F8452000F083F83F2000F080F88F
:100C6000392000F07DF8322000F07AF82F2000F0D3
:100C700077F82A2000F074F8292000F071F821207C
:100C800000F06EF80B2000F06BF8112000F068F80F
:100C90001E2000F065F8302000F062F83A2000F0E5
:100CA0005FF8432000F05CF84E2000F059F8562021
:100CB00000F056F8452000F053F83F2000F050F8BF
:100CC000392000F04DF8322000F04AF82F2000F0D3
:100CD00047F82A2000F044F8292000F041F82120AC
:100CE00000F03EF8002000F03BF8012000F038F85A
:100CF000212000F02FF83A2000F02CF8052000F019
:100D00002FF8292000F026F800BD30B504460D4626
:100D10002A2000F01FF8201200F022F8E0B200F0C4
:100D20001FF8101200F01CF8D0B200F019F82B20B8
:100D300000F010F8281200F013F8E8B200F010F8F4
:100D4000181200F00DF8D8B200F00AF82C2000F0CC
:100D500001F830BD0149088070470000FE07006CB3
:100D600001490880704700000008006C09490988A3
:100D700001F0200169B10749091D0988C8B2054978
:100D8000091D088000BF0349098801F040010029BE
:100D9000F9D0704700380140014600BF704700009D
:100DA00000BF054A128802F04002002AF9D0C2B200
:100DB000014B1B1D1A8070470038014008B5002503
:100DC00005244820FFF79CFCFFF790FEFFF752FC3C
:100DD000D2E0761CB6F5801FFAD30026FE2D01D195
:100DE000FF2500E0FE252846FFF75AFC601CC4B230
:100DF000152C00D1002424B1062C55D00D2C7DD10A
:100E000067E04FF6FF70312340F23F12002100905F
:100E10000846FFF7B7FB0020632340F23F12322160
:100E20000090FFF7AFFB1F20952340F23F12642193
:100E300000900020FFF7A6FB4FF47840C72340F254
:100E40003F12962100900020FFF79CFB4FF61F00F9
:100E5000F92340F23F12C82100900020FFF792FBD7
:100E60004FF4FC6040F22B1340F23F12FA21009045
:100E70000020FFF787FB47F6FF7040F25D1340F25A
:100E80003F124FF4967100900020FFF77BFB4FF666
:100E9000E07040F28F1340F23F124FF4AF710090B8
:100EA0000020FFF76FFB66E00020FFF76FFD0020DA
:100EB0004FF4784331A2014600905A20FFF790FB8F
:100EC00000204FF478432FA210210090FFF788FBF9
:100ED00051E04FF6FF7040F2DF131D220021009019
:100EE0000846FFF74FFB002040F2DF133B2201468C
:100EF00000901E20FFF746FB1F2000E03AE040F282
:100F0000DF135922002100903C20FFF73BFB4FF4F8
:100F1000784040F2DF137722002100905A20FFF73B
:100F200031FB4FF61F0040F2DF13952200210090A5
:100F30007820FFF727FB4FF4FC6040F2DF13B32269
:100F4000002100909620FFF71DFB47F6FF7040F24E
:100F5000DF13D12200210090B420FFF713FB4FF6DE
:100F6000E07040F2DF13EF2200210090D220FFF763
:100F700009FB00E000BF00BF2BE7000050455243D3
:100F800048494E0077656C636F6D6520746F2074FF
:100F9000686520776F726C64206F662053544D3300
:100FA00032210000000000000000000000000000EE
:100FB00000000000000000101010101010100000C1
:100FC000181800000012362448000000000000003D
:100FD00000000000000000242424FE484848FE4889
:100FE000484800000000103854545030181414546D
:100FF0005438101000000044A4A8A8A8541A2A2AA3
:101000002A44000000000030484848506EA49488EC
:101010008976000000606020C00000000000000031
:101020000000000000020408081010101010100842
:1010300008040200004020101008080808080810E2
:1010400010204000000000001010D63838D61010D4
:10105000000000000000000010101010FE10101022
:101060001000000000000000000000000000000070
:10107000606020C000000000000000007F00000051
:101080000000000000000000000000000000000060
:101090006060000000000102020404080810102033
:1010A0002040400000000018244242424242424296
:1010B0002418000000000010701010101010101004
:1010C000107C00000000003C424242040408102052
:1010D000427E00000000003C42420418040202422A
:1010E00044380000000000040C14242444447E040E
:1010F000041E00000000007E40404058640202428E
:10110000443800000000001C244040586442424221
:10111000241800000000007E44440808101010103D
:10112000101000000000003C4242422418244242B9
:10113000423C00000000001824424242261A0202EB
:101140002438000000000000000018180000000013
:10115000181800000000000000000010000000004F
:101160000010102000000002040810204020100889
:1011700004020000000000000000FE000000FE006D
:1011800000000000000000402010080402040810C5
:10119000204000000000003C4242620204080800B7
:1011A0001818000000000038445AAAAAAAAAB4429B
:1011B000443800000000001010182828243C444245
:1011C00042E70000000000F84444447844424242B0
:1011D00044F800000000003E42428080808080424F
:1011E00044380000000000F8444242424242424279
:1011F00044F80000000000FC42484878484840425B
:1012000042FC0000000000FC42484878484840404A
:1012100040E000000000003C44448080808E844414
:1012200044380000000000E7424242427E4242420F
:1012300042E700000000007C101010101010101089
:10124000107C00000000003E080808080808080894
:10125000080888F0000000EE4448507050484844A8
:1012600044EE0000000000E040404040404040406C
:1012700042FE0000000000EE6C6C6C6C5454545440
:1012800054D60000000000C7626252524A4A4A46E1
:1012900046E200000000003844828282828282821C
:1012A00044380000000000FC424242427C40404082
:1012B00040E0000000000038448282828282B2CA8C
:1012C0004C380600000000FC4242427C484844443E
:1012D00042E300000000003E424240201804024267
:1012E000427C0000000000FE921010101010101040
:1012F00010380000000000E74242424242424242AF
:10130000423C0000000000E7424244242428281800
:1013100010100000000000D692929292AAAA6C448B
:1013200044440000000000E7422424181818242434
:1013300042E70000000000EE44442828101010107E
:10134000103800000000007E8404080810202042AD
:1013500042FC0000001E1010101010101010101091
:1013600010101E000000404020201010100808043B
:101370000404020200780808080808080808080899
:1013800008087800001C2200000000000000000097
:10139000000000000000000000000000000000004D
:1013A000000000FF0000000000000000000000003E
:1013B000606020C0000000000000003C421E22428D
:1013C000423F0000000000C040404058644242429A
:1013D00064580000000000000000001C2240404053
:1013E000221C0000000000060202021E22424242AD
:1013F000261B0000000000000000003C427E404030
:10140000423C00000000000F1110107E1010101060
:10141000107C0000000000000000003E4444384002
:101420003C42423C000000C04040405C62424242BC
:1014300042E7000000000030300000701010101073
:10144000107C00000000000C0C00001C04040404CC
:1014500004044478000000C04040404E48506848B2
:1014600044EE00000000007010101010101010105A
:10147000107C000000000000000000FE49494949BE
:1014800049ED000000000000000000DC6242424222
:1014900042E70000000000000000003C42424242DF
:1014A000423C000000000000000000D864424242BC
:1014B000447840E0000000000000001E224242424A
:1014C000221E020700000000000000EE3220202053
:1014D00020F80000000000000000003E42403C02F6
:1014E000427C0000000000000010107C1010101062
:1014F000100C000000000000000000C64242424202
:10150000463B000000000000000000E742242428C1
:101510001010000000000000000000D79292AAAA5C
:1015200044440000000000000000006E2418181859
:101530002476000000000000000000E74224242878
:10154000181010E0000000000000007E4408101099
:10155000227E0000000000000000000000000000EB
:10156000000000000000000000000000000000007B
:10157000000000000000000000000000000000006B
:10158000000000000000000000000000000000005B
:10159000000000000000000000000000000000004B
:1015A00000000000C4150008000000200400000036
:1015B0006C010008C8150008040000206406000043
:0815C000880100080000000092
:0400000508000131BD
:00000001FF
